{
  "amount": "979000000000000",
  "data": "0x",
  "expectedRawTransaction": "0xf86a80843b9aca0082520894ff799340129a3dfb17e39983ed416afa9fcce1c487037a65333c30008062a050325ddc15c799980cd8ef9ef5470bd776389c0cdd147b454c63f98b0a8b766fa04b45b3d42b1fb3ff7e619d7d1e27754a20238c2802859169c79c40d4214aa905",
  "gasPrice": "1000000000",
  "gasLimit": "21000",
  "nonce": "0",
  "privateKey": "0x6b7243a548bcabb65c624fc149b439896986d18946df9431330a2403842d6eed",
  "to": "0xff799340129a3dfb17e39983ed416afa9fcce1c4"
}